:020000040800F2
:10000000285D00209D2E0008F5090008F909000868
:10001000FD090008010A0008050A000800000000A8
:10002000000000000000000000000000090A0008B5
:100030000B0A000800000000A7300008FD2F000890
:10004000B72E0008B72E0008B72E0008B72E0008FC
:10005000B72E0008B72E0008B72E0008B72E0008EC
:10006000B72E0008B72E0008B72E0008B72E0008DC
:10007000B72E0008B72E0008B72E0008B72E0008CC
:10008000B72E0008B72E0008B72E0008B72E0008BC
:1000900075060008B72E0008B72E0008B72E000816
:1000A000B72E000857070008B72E0008B72E000823
:1000B000B72E0008BB070008F5070008B72E000898
:1000C000B72E0008B72E0008B72E0008B72E00087C
:1000D000B72E0008B72E000859080008D7080008F6
:1000E000B72E0008B72E0008B72E0008B72E00085C
:1000F00089070008B72E0008B72E0008B72E0008A1
:10010000B72E0008B72E000827080008B72E0008F1
:10011000B72E0008B72E0008B72E0008B72E00082B
:10012000B72E0008B72E0008B72E0008B72E00081B
:10013000B72E0008B72E0008B72E0008B72E00080B
:10014000D1060008B72E0008B72E0008B72E000809
:10015000B72E0008B72E0008B72E0008B72E0008EB
:10016000B72E0008B72E0008B72E0008B72E0008DB
:10017000B72E0008B72E0008B72E0008B72E0008CB
:10018000B72E0008B72E000800F002F800F03AF889
:100190000AA090E8000C82448344AAF10107DA45E2
:1001A00001D100F02FF8AFF2090EBAE80F0013F0FA
:1001B000010F18BFFB1A43F001031847B89900005C
:1001C000D8990000103A24BF78C878C1FAD85207ED
:1001D00024BF30C830C144BF04680C6070470000C1
:1001E0000023002400250026103A28BF78C1FBD840
:1001F000520728BF30C148BF0B6070471FB51FBDF5
:1002000010B510BD08F053FE1146FFF7F7FF00F0E0
:100210001DF808F071FE03B4FFF7F2FF03BC08F00D
:1002200075FE0000184800686421B0FBF1F4204618
:1002300002F0F9FE03F0DAFC00F09DF800BF0023A5
:100240001A460121184605F0FFFFF8E710B586B001
:1002500000BF02F049FF03F0C4FB032000214FF46C
:1002600080720A4BCDE90132CDE903100A20034622
:10027000074A0090074805F05BFC044603F09EFC2B
:10028000002006B010BD0000800000200C010020FE
:1002900008050020250200081FB500BF18E003AACA
:1002A0000021DA48006805F0D1F90121022001F0AF
:1002B000A0FE01F06EFAD649086002F0E5FC68463F
:1002C00002F0D0FCD248D3A10268D44800F097FFD6
:1002D000E5E71CB54FF4A06006F0DAFF41F2883183
:1002E000CF4800F064FE4FF400704310CD4A4FF445
:1002F000FA710090CC4801F00FF80220034640F25A
:10030000473240F2E7310090C84800F0B8FB4FF4A4
:10031000E13000F05BFE4FF4E13000F0ABFE4FF453
:10032000E13000F0FDFE6421012001F035FA642186
:10033000022001F031FA012001F089FA022001F0D7
:1003400086FA4FF47A71012001F038FB4FF47A718C
:10035000022001F033FB4FF4FA71012001F095FB0C
:10036000B349022001F091FB01AA0021A7480068CF
:1003700005F082FA1CBD10B500BF002005F0D4F8CE
:10038000A2490860002005F0CFF8AA4908600020C3
:1003900005F0CAF8A8490860002005F0C5F8A7498B
:1003A0000860002005F0C0F8A5490860002004F0AE
:1003B0004DFAA44908600B23A34A0021A34805F085
:1003C0005CFB04460E23A24A0021A24805F055FB1F
:1003D000044610BD2DE9FE4F814641F28834B9F143
:1003E0006B0F70D009DCB9F1610F6FD0B9F1640FF8
:1003F00030D0B9F1690F68D1CEE0B9F1730F7DD07B
:10040000B9F1770F03D0B9F1780FF4D198E0204615
:1004100009F05EF9074690480168384609F0A4F9EA
:10042000064609F039F905462946012001F016FC77
:10043000204609F04DF9074687480168384609F01B
:1004400093F9064609F028F905462946022001F0ED
:1004500005FCD8E08048006809F0E6F805460E463D
:10046000204608F070FE7D4A7D4BCDE9000108F082
:10047000BDFE82462A46334608F0B8FE074608F01D
:1004800033FE01460290012001F0E8FB724800684B
:1004900009F0CAF805460E46604208F054FE0746C9
:1004A0006E4A6F4B08F0A2FE2A463346CDE90001A2
:1004B00008F09CFE824608F017FE014602900220DA
:1004C00001F0CCFB9FE083E000E09BE06248006825
:1004D00009F0AAF805460E46604208F034FE0746C9
:1004E0005E4A5F4B08F082FE82462A46334608F099
:1004F0007DFECDE9000108F0F7FD00E043E0014694
:100500000290012001F0AAFB5348006809F08CF822
:10051000CDE90001204608F016FE07464F4A504B31
:1005200008F064FE0546DDE9002308F05FFE824620
:1005300008F0DAFD01460290022001F08FFB62E034
:10054000604209F0C5F8074643480168384609F09B
:100550000BF9064609F0A0F805462946012001F0EE
:100560007DFB604209F0B4F807463B480168384615
:1005700009F0FAF8064609F08FF8054629460220E8
:1005800001F06CFB3FE00021012001F067FB00213E
:10059000022001F063FB36E02F48006809F044F8C0
:1005A0000746304A304B08F0EBFC054608F0B6FC35
:1005B000294908600846006809F036F80546002217
:1005C0002A4B08F011FF02D82948234908601AE095
:1005D0002148006809F028F80746224A224B08F013
:1005E00039FF054608F09AFC1B4908604FF07E5120
:1005F0001948006809F084F803D84FF07E50164976
:10060000086000E000BF00BFBDE8FE8F10000020C2
:100610002800002025640D0A00000000004C004066
:10062000000C004000040240006400400004004050
:100630000CFEFFFF14000020180000201C0000200A
:10064000200000202400002008250020D3020008FC
:1006500008310020990200082C0000209A999999ED
:100660009999C93FB81E85EB51B89E3F00000440E0
:100670000000204010B586B000240221E34808F0B5
:10068000F3FA18B301AA0021E04808F06AF9019CC6
:1006900040F20170844206D10120DD4908709DF8C6
:1006A0001200DC490870DB480078052802D10120DF
:1006B000D949087001A9012001F07EFD01A902209D
:1006C00001F000FD0421D14808F069FB06B010BD1F
:1006D00038B50020009002F0C5FC0446CF480078F1
:1006E000401CCE490870204602F0C0FC0823CC4ACA
:1006F0006946CC4801F011F8CB49CA4808F091FA94
:10070000C949491CC74808F08CFAC749C91CC548E3
:1007100008F087FAC549C34808F083FAC449C148BC
:1007200008F07FFAC349BF4808F07BFAC149083195
:10073000BC4808F076FAC049BA4808F072FABF49D6
:10074000B84808F06EFABD490831B64808F069FAB1
:1007500003F071F938BD10B502F084FC0446AF48CF
:100760000078401CAD490870204602F07FFC012152
:10077000B34807F062FB012803D10121B04807F01C
:100780006DFB03F058F910BD10B502F06BFC044688
:10079000A2480078401CA1490870204602F066FC7F
:1007A0000121A84807F049FB012803D10121A548F0
:1007B00007F054FB03F03FF910BD10B502F052FCF6
:1007C000044696480078401C94490870204602F080
:1007D0004DFC01219C4807F030FB012807D1012185
:1007E000994807F03BFB9948006804F0EAFF03F0E2
:1007F00022F910BD10B502F035FC04468748007898
:10080000401C86490870204602F030FC01219048C7
:1008100007F013FB012803D101218D4807F01EFBCF
:1008200003F009F910BD10B502F01CFC04467B482A
:100830000078401C79490870204602F017FC01211D
:10084000844807F0FAFA012803D10121814807F012
:1008500005FB03F0F0F810BD10B5002403F0DDF83F
:1008600040F225517C4807F0AEFD012830D140F21E
:100870002551794807F0DEFD774807F0F8FC04467B
:100880007648007820B101280ED002281FD117E049
:10089000412C05D171480078401C7049087002E075
:1008A00000206E49087012E0432C05D16B48007897
:1008B000401C6A49087002E000206849087006E0A0
:1008C000E0B202F0DEF900206449087000BF00BF0A
:1008D00003F0B1F810BD3EB502F0C4FB04464F482A
:1008E0000078401C4D490870204602F0BFFB40F2E2
:1008F00025515B4807F067FD012878D140F225516A
:10090000574807F097FD564807F0B1FC5549087065
:1009100055480078052865D2DFE800F00311263D30
:100920004B00504800780D2805D14F480078401CF6
:100930004D49087002E000204B49087056E04948D4
:1009400000780A2808D100204849087046480078F5
:10095000401C4549087006E0424800780D2802D046
:1009600000204149087041E03E48007840493F4A34
:10097000127888543D480078401C3C49087008466D
:100980000078182806DB0020087037480078401CE3
:10099000354908702AE0334800780A2805D13248E2
:1009A0000078401C3049087002E000202E49087091
:1009B0001CE02C4800780D280FD12D4800680290CB
:1009C0002B48C06880F0004000902948006980F002
:1009D00000400190684602F038F900202249087072
:1009E00004E004E000202049087000BF00BF03F0CD
:1009F00022F83EBD00BFFEE700BFFEE700BFFEE7F6
:100A000000BFFEE700BFFEE770477047006400408C
:100A1000310000203300002032000020B50000200B
:100A20000C390020006800400100F0107000F03028
:100A30000300001208000032030000140800003414
:100A400000000140000401400004004010000020AC
:100A500000080040000C004000440040340000202A
:100A600000480040350000203600002037000020FC
:100A70001C39002000BF401E0028FCD170472DE922
:100A8000FF4104460D4616461F46DDF82880F94909
:100A9000601A8C4270D01ADCF749A4EB01008C423A
:100AA0006CD00ADCB4F1804F4ED0F44820440028CA
:100AB00052D0B0F5806F71D156E0B0F5806F65D03F
:100AC000B0F5006F6CD0B0F5406FF4D170E0B0F5C8
:100AD000923F21D009DCB0F5806F7AD0B0F5644F39
:100AE0000AD0B0F5684F7CD10EE0B0F5943F1BD032
:100AF000B0F5963F75D11FE00121084606F0CEFA09
:100B000019208DF800006DE00121022006F0C6FAE0
:100B10002C208DF8000065E00121080406F0BEFAE3
:100B200018208DF800005DE00121192006F0B6FACA
:100B30002C208DF8000055E00121880406F0AEFA63
:100B40001A208DF800004DE00121084606F095FAC4
:100B50001C208DF8000045E00121022006F08DFAEE
:100B60001D208DF800003DE00121042006F085FAEB
:100B70001E208DF8000035E023E0FFE7012108206A
:100B800006F07BFA32208DF800002BE001211020C6
:100B900006F073FA36208DF8000023E021E0FFE72D
:100BA0000121202006F069FA37208DF8000019E0B5
:100BB0000121402006F061FA2B208DF8000011E0A1
:100BC00007E00121802006F058FA2C208DF8000063
:100BD00008E00121080206F050FA2D208DF80000EF
:100BE00000E000BF00BF0295ADF804600020ADF842
:100BF0000C00ADF8060001A9204606F066FC0121B4
:100C0000204607F02BF901221146204607F0FEF896
:100C1000F8B28DF8010008F0FF008DF80200012005
:100C20008DF80300684606F038FB0121204606F0E7
:100C3000D5FCBDE8FF81FEB504460D462E468D4924
:100C4000601A8C4270D01ADC8B49A4EB01008C42F4
:100C50006CD00ADCB4F1804F4ED088482044002884
:100C600052D0B0F5806F71D156E0B0F5806F65D08D
:100C7000B0F5006F6CD0B0F5406FF4D170E0B0F516
:100C8000923F21D009DCB0F5806F7AD0B0F5644F87
:100C90000AD0B0F5684F7CD10EE0B0F5943F1BD080
:100CA000B0F5963F75D11FE00121084606F0F6F930
:100CB000A820ADF800006DE00121022006F0EEF959
:100CC000A820ADF8000065E00121080406F0E6F96F
:100CD000A820ADF800005DE00121480406F0DEF92F
:100CE000A820ADF8000055E00121880406F0D6F9EF
:100CF000A820ADF800004DE00121084606F0BDF93E
:100D00005420ADF8000045E00121022006F0B5F9BD
:100D10005420ADF800003DE00121042006F0ADF9BB
:100D20005420ADF8000035E023E0FFE70121082062
:100D300006F0A3F95420ADF800002BE001211020AB
:100D400006F09BF95420ADF8000023E021E0FFE716
:100D50000121202006F091F95420ADF8000019E09F
:100D60000121402006F089F95420ADF8000011E07F
:100D700007E00121802006F080F95420ADF8000042
:100D800008E00121080206F078F95420ADF80000CF
:100D900000E000BF00BF012001900020ADF8080076
:100DA000ADF802006946204606F08FFB012120467F
:100DB00006F014FC4FF6FF70811B204606F0CEFBB8
:100DC00003E0204606F0CEFB86B24FF6FF70864267
:100DD000F7DB0021204606F001FCFEBDFEB504460F
:100DE0000D462E462349601A8C4276D01ADC2249E1
:100DF000A4EB01008C427CD00ADCB4F1804F5AD0C5
:100E00001E48204400285FD0B0F5806F67D167E0AE
:100E1000B0F5806F79D0B0F5006F7FD0B0F5406F3E
:100E2000F4D184E0B0F5923F2AD009DCB0F5806FB0
:100E30006AD0B0F5644F0AD0B0F5684F4FD10FE0DB
:100E4000B0F5943F25D0B0F5963F48D12AE0012176
:100E5000084606F023F944F2A010ADF8000082E045
:100E60000121022006F01AF944F2A010ADF80000AA
:100E700079E00000001C0040000C004000FCFFBFB7
:100E80000121080406F00AF944F2A010ADF80000B0
:100E900069E00121480406F001F944F2A010ADF820
:100EA000000060E00121880406F0F8F844F2A01088
:100EB000ADF8000057E00121084606F0DEF842F2E6
:100EC000D000ADF800004EE00121022006F0D5F878
:100ED00042F2D000ADF8000045E031E009E041E029
:100EE0000121042006F0C9F842F2D000ADF800005C
:100EF00039E00121082006F0C0F842F2D000ADF838
:100F0000000030E001E009E023E00121102006F0BC
:100F1000B4F842F2D000ADF8000024E00121202016
:100F200006F0ABF842F2D000ADF800001BE0012162
:100F3000402006F0A2F842F2D000ADF8000012E026
:100F40000121802006F099F842F2D000ADF80000AF
:100F500009E00121080206F090F842F2D000ADF855
:100F6000000000E000BF00BF012001900020ADF8AC
:100F70000800ADF802006946204606F0A6FA0121F5
:100F8000204606F02BFB4FF6FF70811B204606F033
:100F9000E5FA03E0204606F0E5FA86B24FF6FF7068
:100FA0008642F7DB0021204606F018FBFEBD70B537
:100FB00006460C46002500BF04E00A213046FFF734
:100FC0000DFF6D1CA542F8D370BD000010B588B0B0
:100FD00004460121082006F01DF80121480406F00E
:100FE0004CF807220521C74805F059FE07220621C3
:100FF000C44805F054FE6020069002208DF81C00C5
:101000008DF81D0000208DF81E0001208DF81F00B6
:1010100006A9BC4805F0B8FD02940020ADF80C000C
:10102000ADF80E00ADF81000ADF814000C20ADF8CE
:10103000120002A9B44807F03BF80121B24807F0BA
:10104000BFF84021B04807F0E6F8012240F22551F0
:10105000AD4807F093F926208DF8040001208DF8A3
:1010600005008DF806008DF8070001A806F015F9B7
:1010700008B010BD10B588B004460121082005F065
:10108000C9FF0121880405F0F8FF072208219D48C7
:1010900005F005FE072209219A4805F000FE4FF4ED
:1010A0004070069002208DF81C008DF81D00002075
:1010B0008DF81E0001208DF81F0006A9914805F04B
:1010C00063FD02940020ADF80C00ADF80E00ADF801
:1010D0001000ADF814000C20ADF8120002A98B48E6
:1010E00006F0E6FF0121894807F06AF840218748A9
:1010F00007F091F8012240F22551844807F03EF9AB
:1011000027208DF8040003208DF805008DF80600D7
:1011100001208DF8070001A806F0BFF808B010BD47
:1011200010B586B004460121042005F073FF0121AB
:10113000C80405F0A2FF08220A21754805F0AFFD9A
:1011400008220B21724805F0AAFD4FF4406004907C
:1011500002208DF814008DF8150000208DF816007F
:1011600001208DF8170004A9694805F00DFD0094D1
:101170000020ADF80400ADF80600ADF80800ADF8A9
:101180000C000C20ADF80A006946624806F090FF9A
:101190000121604807F014F806B010BDF0B5034611
:1011A0000D461646002729460A2E03D00020087057
:1011B0002846F0BD33B9302001F8010B002008703B
:1011C0002846F6E7002B03DA2D2001F8010B5B42DD
:1011D00042F210720DE093FBF2F404B937B104F15E
:1011E000300001F8010B04FB123301270A2092FBA7
:1011F000F0F2002AEFDC002008702846D9E70FB48F
:1012000070B586B006460CA8019073E00B98007884
:101210005C281CD10B98401C0B9000786E2809D0DC
:1012200072280FD10D21304607F00BF80B98401CA7
:101230000B900BE00A21304607F003F80B98401C96
:101240000B9003E00B98401C0B9000BF4BE00B98F9
:101250000078252840D10B98401C0B90007864281A
:1012600018D0732833D1019810C801900BE0217871
:10127000304606F0E6FF00BF4021304606F0D4FFBE
:101280000028F9D0641C20780028F0D10B98401C6D
:101290000B9020E0019820C801900A2202A928465C
:1012A000FFF77CFF02AC0BE02178304606F0C9FF67
:1012B00000BF4021304606F0B7FF0028F9D0641C7B
:1012C00020780028F0D10B98401C0B9003E00B987D
:1012D000401C0B9000BF06E00B9810F8011B0B9010
:1012E000304606F0AEFF00BF4021304606F09CFFBE
:1012F0000028F9D00B980078002887D106B070BC80
:101300005DF814FB000C024000440040004800401F
:1013100000080240004C00402DE9F04F8BB006461B
:101320000F4614461D46DDF850804FF00009CA46AE
:10133000CB46B5F5807F43D012DC102D34D008DCCD
:10134000012D25D0022D26D0042D27D0082D4FD1D8
:1013500027E0202D2BD0402D2CD0802D48D12CE003
:10136000B5F5805F38D009DCB5F5007F2BD0B5F539
:10137000806F2BD0B5F5006F3AD12AE0B5F5005F4C
:101380002DD0B5F5804F2DD0B5F5004F30D12CE0E4
:101390004FF000092DE04FF001092AE04FF002095B
:1013A00027E04FF0030924E04FF0040921E04FF05B
:1013B00005091EE04FF006091BE04FF0070918E091
:1013C0004FF0080915E04FF0090912E04FF00A0943
:1013D0000FE04FF00B090CE04FF00C0909E04FF063
:1013E0000D0906E04FF00E0903E04FF00F0900E091
:1013F00000BF00BFB8F5807F4BD01ADCB8F1100FEA
:101400003BD00CDCB8F1010F2BD0B8F1020F2BD080
:10141000B8F1040F2BD0B8F1080F52D12AE0B8F17F
:10142000200F2DD0B8F1400F2DD0B8F1800F48D14A
:101430002CE0B8F5805F38D009DCB8F5007F2BD000
:10144000B8F5806F2BD0B8F5006F3AD12AE0B8F527
:10145000005F2DD0B8F5804F2DD0B8F5004F30D1BA
:101460002CE04FF0000A2DE04FF0010A2AE04FF087
:10147000020A27E04FF0030A24E04FF0040A21E0BB
:101480004FF0050A1EE04FF0060A1BE04FF0070A76
:1014900018E04FF0080A15E04FF0090A12E04FF08B
:1014A0000A0A0FE04FF00B0A0CE04FF00C0A09E0BB
:1014B0004FF00D0A06E04FF00E0A03E04FF00F0A5E
:1014C00000E000BF00BFA748304418B1B0F5806FFE
:1014D0001AD10CE04FF0090B00208DF812001420F7
:1014E0008DF804000121480605F0C7FD0DE04FF01E
:1014F000090B0E208DF8120040208DF80400012108
:10150000000505F0BAFD00E000BF00BFC4F309000C
:1015100078BBA012A0F580108038092834D2DFE80B
:1015200000F0050A0F14191E23292E000121084678
:1015300005F070FD29E00121022005F06BFD24E09B
:101540000121042005F066FD1FE00121082005F0BF
:1015500061FD1AE00121102005F05CFD15E001217C
:10156000202005F057FD10E00121402005F052FD3C
:101570000BE009E00121802005F04CFD05E0012190
:10158000080205F047FD00E000BF00BF5A4649468B
:10159000204605F084FB5A465146204605F07FFB65
:1015A00045EA0800099002208DF828008DF82900EE
:1015B00000208DF82A0001208DF82B0009A9204673
:1015C00005F0E2FA304606F045FF00208DF81E00D7
:1015D0008DF81F008DF820008DF821008DF8220075
:1015E0008DF823008DF81A008DF81B000B208DF864
:1015F0001C0007208DF81D007D2F22D008DC0A2F4B
:101600000FD0142F11D0322F13D0642F29D114E012
:10161000FA2F1AD0B7F5FA7F1BD0B7F57A7F20D111
:101620001BE0C820ADF818001CE06420ADF81800DD
:1016300018E02820ADF8180014E01420ADF81800C8
:1016400010E01020ADF818000CE00820ADF81800EC
:1016500008E00420ADF8180004E00220ADF81800FE
:1016600000E000BF00BF06A9304606F00CFF0020D6
:101670008DF8130001208DF814000020ADF808004B
:10168000ADF80A00ADF80C00ADF80E00ADF8100092
:1016900001208DF8150002A806F07FFF00208DF8CC
:1016A00005008DF8060001208DF8070001A805F05F
:1016B000F4FD01220221304607F06EFA0BB0BDE8BE
:1016C000F08F2DE9F04385B081460D4690461E46C9
:1016D00000240095019500208DF808008DF8090080
:1016E0008DF80A6000BF06E018F804100DF10B0039
:1016F0000155601C84B2B442F6DB6946484607F0E7
:101700003BF80746002400BF3946484607F0CCF8AE
:101710000128F9D105B0BDE8F0832DE9F04186B08C
:1017200080460D4616461F4600240021404607F01D
:101730009BF918B9002006B0BDE8F08101AA00218C
:10174000404607F00EF9002405E00DF10F00005DA2
:101750003055601CC4B2BC42F7DB01982860012000
:10176000E9E70000009CFFBFFB4908607047FA48AA
:1017700000687047F94908607047F848006870478A
:10178000F74908607047F64800687047F5490860F7
:101790007047F44800687047F0B587B006460D46BC
:1017A0000024F14903C9CDE9050106F5C0600090A8
:1017B000019000208DF808008DF8090008208DF8B0
:1017C0000A00280E290A00EB014000EB0560069094
:1017D00005A850F83400000E8DF80B0005A850F84D
:1017E0003400010C8DF80C1005A830F83400010A03
:1017F0008DF80D1005A810F834108DF80E1000EBC0
:10180000C4004068000E8DF80F0005A800EBC4006E
:101810004068010C8DF8101005A800EBC40080880A
:10182000010A8DF8111005A800EBC40001798DF8AC
:1018300012106946CD4806F09FFF074600BF3946A3
:10184000CA4807F031F80128F9D107B0F0BD70B5EA
:1018500088B005460024C449083103C9CDE9060112
:101860000020019002908DF80C008DF80D000820EA
:101870008DF80E00601E00EA054000F180700690B1
:1018800006A850F83400000E8DF80F0006A850F896
:101890003400010C8DF8101006A830F83400010A4D
:1018A0008DF8111006A810F834108DF8121000EB06
:1018B000C4004068000E8DF8130006A800EBC400B9
:1018C0004068010C8DF8141006A800EBC400808855
:1018D000010A8DF8151006A800EBC40001798DF8F7
:1018E000161001A9A14806F047FF064600BF314681
:1018F0009E4806F0D9FF0128F9D108B070BDF0B5B7
:1019000087B007460D4600249749103103C9CDE939
:10191000050107F5C0600090019000208DF80800D7
:101920008DF8090008208DF80A00012D03D14FF031
:101930007060069003E015B94FF05060069005A85E
:1019400050F83400000E8DF80B0005A850F8340054
:10195000010C8DF80C1005A830F83400010A8DF840
:101960000D1005A810F834108DF80E1000EBC4000F
:101970004068000E8DF80F0005A800EBC400406819
:10198000010C8DF8101005A800EBC4008088010A36
:101990008DF8111005A800EBC40001798DF8121024
:1019A0006946724806F0E8FE064600BF31466F48B9
:1019B00006F07AFF0128F9D107B0F0BDF0B589B083
:1019C00007460D460024684B18330FCB05AE0FC6F3
:1019D00007F5C0600090019000208DF808008DF898
:1019E000090008208DF80A00C5F30741281661F3A5
:1019F0001F20C5F3072100EB014000EB05610891B2
:101A000000BF3EE005A850F83400000E8DF80B0032
:101A100005A850F83400010C8DF80C1005A830F81A
:101A20003400010A8DF80D1005A810F834108DF857
:101A30000E1000EBC4004068000E8DF80F0005A8E2
:101A400000EBC4004068010C8DF8101005A800EBF5
:101A5000C4008088010A8DF8111005A800EBC400AD
:101A600001798DF812106946404806F085FE064659
:101A700000BF31463D4806F017FF0128F9D1601C30
:101A8000C4B2022CBEDB09B0F0BDF0B587B007468A
:101A90000D4600243449283103C9CDE9050107F575
:101AA000C0600090019000208DF808008DF80900BA
:101AB00008208DF80A00C5F30741281661F31F209E
:101AC000C5F3072100EB014000EB0560069000BF65
:101AD0003EE005A850F83400000E8DF80B0005A874
:101AE00050F83400010C8DF80C1005A830F83400C3
:101AF000010A8DF80D1005A810F834108DF80E109D
:101B000000EBC4004068000E8DF80F0005A800EB44
:101B1000C4004068010C8DF8101005A800EBC4004B
:101B20008088010A8DF8111005A800EBC400017926
:101B30008DF8121069460D4806F01EFE064600BFDD
:101B400031460A4806F0B0FE0128F9D1601CC4B243
:101B5000012CBEDB07B0F0BD3C0000204800002097
:101B6000440000204000002000990008006400406C
:101B70002DE9F0418CB007460D4616460024182288
:101B8000F84906A807F05EF907F5C06001900290D9
:101B900000208DF80C008DF80D0008208DF80E0047
:101BA000C5F30741280E61F31F20C5F3072100EBA1
:101BB000014000EB05610991C6F30741300E61F366
:101BC0001F20C6F3072100EB014000EB06610B91DB
:101BD00000BF3EE006A850F83400000E8DF80F005C
:101BE00006A850F83400010C8DF8101006A830F843
:101BF0003400010A8DF8111006A810F834108DF881
:101C0000121000EBC4004068000E8DF8130006A807
:101C100000EBC4004068010C8DF8141006A800EB1E
:101C2000C4008088010A8DF8151006A800EBC400D6
:101C300001798DF8161001A9CB4806F09DFD80466C
:101C400000BF4146C84806F02FFE0128F9D1601CAC
:101C5000C4B2032CBEDB0CB0BDE8F081F0B587B098
:101C600007460D460024BF49183103C9CDE90501D7
:101C700007F5C0600090019000208DF808008DF8F5
:101C8000090008208DF80A00C5F30741281661F302
:101C90001F20C5F3072100EB014000EB0560069013
:101CA00000BF3EE005A850F83400000E8DF80B0090
:101CB00005A850F83400010C8DF80C1005A830F878
:101CC0003400010A8DF80D1005A810F834108DF8B5
:101CD0000E1000EBC4004068000E8DF80F0005A840
:101CE00000EBC4004068010C8DF8101005A800EB53
:101CF000C4008088010A8DF8111005A800EBC4000B
:101D000001798DF812106946974806F035FD0646B0
:101D100000BF3146944806F0C7FD0128F9D1601C88
:101D2000C4B2012CBEDB07B0F0BD2DE9F0438FB08B
:101D300080460D4616461F46002428228949203138
:101D400005A807F07FF808F5C0600090019000201A
:101D50008DF808008DF8090008208DF80A00C5F3F9
:101D60000741281661F31F20C5F3072100EB01404E
:101D700000EB05610A91C6F30741300E61F31F20A5
:101D8000C6F3072100EB014000EB06610C91C7F39D
:101D90000741380E61F31F20C7F3072100EB014014
:101DA00000EB07610E9100BF3EE005A850F834003B
:101DB000000E8DF80B0005A850F83400010C8DF8CA
:101DC0000C1005A830F83400010A8DF80D1005A894
:101DD00010F834108DF80E1000EBC4004068000EAF
:101DE0008DF80F0005A800EBC4004068010C8DF8C9
:101DF000101005A800EBC4008088010A8DF81110AE
:101E000005A800EBC40001798DF812106946564808
:101E100006F0B2FC814600BF4946534806F044FD37
:101E20000128F9D1601CC4B2052CBEDB0FB0BDE89F
:101E3000F0832DE9F0418AB080460E461546002415
:101E4000484B48330FCB06AF0FC708F5C060019071
:101E5000029000208DF80C008DF80D0008208DF800
:101E60000E00C5F30741281661F31F20C5F30721B3
:101E700000EB014000EB05600790012E03D14FF00D
:101E80007C51099103E016B94FF0FE4109910024FD
:101E90003EE006A850F83400000E8DF80F0006A8AA
:101EA00050F83400010C8DF8101006A830F83400FA
:101EB000010A8DF8111006A810F834108DF81210D0
:101EC00000EBC4004068000E8DF8130006A800EB7C
:101ED000C4004068010C8DF8141006A800EBC40083
:101EE0008088010A8DF8151006A800EBC40001795E
:101EF0008DF8161001A91C4806F03EFC074600BFED
:101F00003946194806F0D0FC0128F9D1601CC4B24A
:101F1000032CBEDB0AB0BDE8F081F0B58BB00646FD
:101F20000D46002418220F49583105A806F08AFFF3
:101F300006F5C0600090019000208DF808008DF833
:101F4000090008208DF80A00C5F30741281661F33F
:101F50001F20C5F3072100EB014000EB056108914C
:101F600000BF42E0309900080064004005A850F826
:101F70003400000E8DF80B0005A850F83400010C59
:101F80008DF80C1005A830F83400010A8DF80D10FA
:101F900005A810F834108DF80E1000EBC40040684E
:101FA000000E8DF80F0005A800EBC4004068010C7E
:101FB0008DF8101005A800EBC4008088010A8DF888
:101FC000111005A800EBC40001798DF812106946C4
:101FD000F84806F0D1FB074600BF3946F54806F041
:101FE00063FC0128F9D1601CC4B2032CBEDB0BB02A
:101FF000F0BDF0B587B005460F46002400200590DF
:10200000069005F5C0600090019000208DF8080052
:102010008DF8090008208DF80A00012F06D0022F44
:1020200007D0032F08D0042F0CD108E0E248059018
:1020300008E0E248059005E0E148059002E0E1484B
:10204000059000BF00BF05A850F83400000E8DF8C1
:102050000B0005A850F83400010C8DF80C1005A8F1
:1020600030F83400010A8DF80D1005A810F834106E
:102070008DF80E1000EBC4004068000E8DF80F00C4
:1020800005A800EBC4004068010C8DF8101005A8ED
:1020900000EBC4008088010A8DF8111005A800EB40
:1020A000C40001798DF812106946C24806F064FB3D
:1020B000064600BF3146BF4806F0F6FB0128F9D1BD
:1020C00007B0F0BD00B503460A46D07ABE49087095
:1020D000117B507B01EB0020BC490880907BBC4900
:1020E00008701068C01AB0F5B06F61D1B6480078BA
:1020F00043285BD1B5480088A0F5C0406338C8B11B
:10210000012804D0062828D015284CD138E0D17BEE
:10211000107C01EB0021507C01EB0041907C01EB35
:102120000060AC49086008460068FFF723FB46F2F0
:10213000640000BDD17B107C01EB0021507C01EBE1
:102140000041907C01EB0060A349086008460068EC
:10215000FFF716FB46F26300EBE7D17B107C01EB47
:102160000021507C01EB0041907C01EB00609B4919
:10217000086008460068FFF7F7FA46F26900D8E7FA
:10218000D17B107C01EB0021507C01EB0041907C65
:1021900001EB00609249086008460068FFF7F6FA14
:1021A00046F27800C5E700BF00BF00E000BF01E0D5
:1021B0000020BEE700BFBCE70246C87A894B187012
:1021C0000B7B487B03EB0020874B1880887B874B79
:1021D00018700868801AB0F5B06F12D18148007885
:1021E00043280CD04F280BD17F480088A0F2045020
:1021F00018B901207E4B1870704700BF00E000BF87
:1022000001E00020F8E700BFF6E7F0B585B004462E
:102210000D460027A5F5B450204400900020019001
:102220008DF8080002208DF8090000208DF80A00C2
:102230006946604806F0A0FA064600BF31465D4890
:1022400006F032FB0128F9D105B0F0BD2DE9F041CF
:1022500088B005460E4690460024664903C9CDE97C
:10226000060105F5C0600190029000208DF80C0079
:102270008DF80D0008208DF80E00A6F5A0500699E7
:1022800041EA00400690B8F1000F0BD0B8F1010F01
:1022900012D1A6F59850FE38002141EA00202844CA
:1022A000079009E0A6F59850FE384FF0004141EA4A
:1022B00000202844079000BF00BF0798C0F30741E3
:1022C000000E61F31F200799C1F3072100EB0140C5
:1022D000079900EB0160079006A850F83400000E43
:1022E0008DF80F0006A850F83400010C8DF810107E
:1022F00006A830F83400010A8DF8111006A810F86D
:1023000034108DF8121000EBC4004068000E8DF8F8
:10231000130006A800EBC4004068010C8DF81410EF
:1023200006A800EBC4008088010A8DF8151006A8E5
:1023300000EBC40001798DF8161001A91D4806F0C4
:102340001BFA074600BF39461A4806F0ADFA0128C5
:10235000F9D108B0BDE8F0812DE9F04188B005461B
:102360000E46904600242349083103C9CDE90601F1
:1023700005F5C0600190029000208DF80C008DF8EA
:102380000D0008208DF80E00A6F5C050069941EA10
:1023900000400690B8F1000F2ED0B8F1010F34D1F3
:1023A000A6F5B850FF38802141EA00202844079064
:1023B0002BE000000064004000607840006069404D
:1023C00000606340006064405F0000205C0000200B
:1023D0005E00002050000020540000204C0000202F
:1023E00058000020630000206000002062000020F0
:1023F00038000020A0990008A6F5B850FF38FE4923
:1024000041EA00202844079000BF00BF0798C0F3AE
:102410000741000E61F31F200799C1F3072100EB6C
:102420000140079900EB0160079006A850F83400BE
:10243000000E8DF80F0006A850F83400010C8DF83E
:10244000101006A830F83400010A8DF8111006A803
:1024500010F834108DF8121000EBC4004068000E24
:102460008DF8130006A800EBC4004068010C8DF83D
:10247000141006A800EBC4008088010A8DF815101E
:1024800006A800EBC40001798DF8161001A9DB48FD
:1024900006F072F9074600BF3946D84806F004FA3C
:1024A0000128F9D108B0BDE8F0812DE9F04188B0EC
:1024B00005460E4617460024D14903C9CDE9060159
:1024C00005F5C0600190029000208DF80C008DF899
:1024D0000D0008208DF80E00A6F5C050069941EABF
:1024E0000040069007970798C0F30741000E61F37C
:1024F0001F200799C1F3072100EB0140079900EB6A
:102500000160079006A850F83400000E8DF80F0007
:1025100006A850F83400010C8DF8101006A830F809
:102520003400010A8DF8111006A810F834108DF847
:10253000121000EBC4004068000E8DF8130006A8CE
:1025400000EBC4004068010C8DF8141006A800EBE5
:10255000C4008088010A8DF8151006A800EBC4009D
:1025600001798DF8161001A9A44806F005F98046F6
:1025700000BF4146A14806F097F90128F9D108B0FB
:10258000BDE8F0812DE9F04188B005460E461746BA
:1025900000249B49083103C9CDE9060105F5C06057
:1025A0000190029000208DF80C008DF80D0008209D
:1025B0008DF80E00A6F5A050069941EA004006905D
:1025C00007970798C0F30741000E61F31F20079992
:1025D000C1F3072100EB0140079900EB0160079070
:1025E00006A850F83400000E8DF80F0006A850F829
:1025F0003400010C8DF8101006A830F83400010AE0
:102600008DF8111006A810F834108DF8121000EB98
:10261000C4004068000E8DF8130006A800EBC4004B
:102620004068010C8DF8141006A800EBC4008088E7
:10263000010A8DF8151006A800EBC40001798DF889
:10264000161001A96D4806F097F8804600BF414674
:102650006A4806F029F90128F9D108B0BDE8F081EF
:102660002DE9F04188B005460E461746002464491E
:10267000103103C9CDE9060105F5C0600190029053
:1026800000208DF80C008DF80D0008208DF80E004C
:10269000A6F5C050069941EA0040069007970798B2
:1026A000C0F30741000E61F31F200799C1F3072112
:1026B00000EB0140079900EB0160079006A850F875
:1026C0003400000E8DF80F0006A850F83400010CFD
:1026D0008DF8101006A830F83400010A8DF811109A
:1026E00006A810F834108DF8121000EBC4004068F2
:1026F000000E8DF8130006A800EBC4004068010C22
:102700008DF8141006A800EBC4008088010A8DF82B
:10271000151006A800EBC40001798DF8161001A968
:10272000364806F029F8804600BF4146334806F097
:10273000BBF80128F9D108B0BDE8F0812DE9F041DE
:1027400088B005460E46174600242D49183103C9A6
:10275000CDE9060105F5C0600190029000208DF8DA
:102760000C008DF80D0008208DF80E00A6F5C05065
:10277000069941EA0040069007970798C0F3074181
:10278000000E61F31F200799C1F3072100EB014000
:10279000079900EB0160079006A850F83400000E7E
:1027A0008DF80F0006A850F83400010C8DF81010B9
:1027B00006A830F83400010A8DF8111006A810F8A8
:1027C00034108DF8121000EBC4004068000E8DF834
:1027D000130006A800EBC4004068010C8DF814102B
:1027E00006A800EBC4008088010A8DF8151006A821
:1027F00000EBC400017905E0800000800064004027
:10280000B09900088DF8161001A9FB4805F0B4FF37
:10281000804600BF4146F84806F046F80128F9D145
:1028200008B0BDE8F081F0B58BB006460D46002437
:102830001822F24905A806F005FB06F5C0600090D5
:10284000019000208DF808008DF8090008208DF80F
:102850000A00A5F5C050059941EA00400590A5F58C
:10286000C050079941EA00400790A5F5C05009996A
:1028700041EA004009900698C0F30741000E61F359
:102880001F200699C1F3072100EB0140069900EBD8
:10289000016006900898C0F30741000E61F31F2005
:1028A000BDF82010C1F3072100EB014105A8007B12
:1028B00001EB006108910A98C0F30741000E61F333
:1028C0001F20BDF82810C1F3072100EB014105A826
:1028D000007D01EB00610A9100BF3EE005A850F8C1
:1028E0003400000E8DF80B0005A850F83400010CE0
:1028F0008DF80C1005A830F83400010A8DF80D1081
:1029000005A810F834108DF80E1000EBC4004068D4
:10291000000E8DF80F0005A800EBC4004068010C04
:102920008DF8101005A800EBC4008088010A8DF80E
:10293000111005A800EBC40001798DF8121069464A
:10294000AD4805F019FF074600BF3946AA4805F013
:10295000ABFF0128F9D1601CC4B2032CBEDB0BB065
:10296000F0BDF0B58BB006460D4600241822A349F1
:10297000183105A806F066FA06F5C06000900190CF
:1029800000208DF808008DF8090008208DF80A0055
:10299000A5F5A050059941EA00400590A5F5A05085
:1029A000079941EA00400790A5F5A050099941EA2E
:1029B000004009900698C0F30741000E61F31F2004
:1029C0000699C1F3072100EB0140069900EB016075
:1029D00006900898C0F30741000E61F31F20BDF870
:1029E0002010C1F3072100EB014105A8007B01EB9A
:1029F000006108910A98C0F30741000E61F31F209F
:102A0000BDF82810C1F3072100EB014105A8007DA6
:102A100001EB00610A9100BF3EE005A850F83400C8
:102A2000000E8DF80B0005A850F83400010C8DF84D
:102A30000C1005A830F83400010A8DF80D1005A817
:102A400010F834108DF80E1000EBC4004068000E32
:102A50008DF80F0005A800EBC4004068010C8DF84C
:102A6000101005A800EBC4008088010A8DF8111031
:102A700005A800EBC40001798DF8121069465E4884
:102A800005F07AFE074600BF39465B4805F00CFFAB
:102A90000128F9D1601CC4B2032CBEDB0BB0F0BD21
:102AA0002DE9F04387B005460E46174698460024A8
:102AB000002005900690A6F5905028440090002034
:102AC00001908DF808008DF8090008208DF80A00A3
:102AD0000597CDF818800698C0F30741000E61F302
:102AE0001F200699C1F3072100EB0140069900EB76
:102AF000016006900598C0F30741000E61F31F20A6
:102B00000599C1F3072100EB0140059900EB016035
:102B1000059005A850F83400000E8DF80B0005A8AC
:102B200050F83400010C8DF80C1005A830F8340072
:102B3000010A8DF80D1005A810F834108DF80E104C
:102B400000EBC4004068000E8DF80F0005A800EBF4
:102B5000C4004068010C8DF8101005A800EBC400FB
:102B60008088010A8DF8111005A800EBC4000179D6
:102B70008DF812106946204805F0FEFD814600BF21
:102B800049461D4805F090FE0128F9D107B0BDE87F
:102B9000F08330B503460C46D87A19490870197B82
:102BA000587B01EB002017490880987B1649087074
:102BB0000846007808701868011BA2F5B850FF3865
:102BC000802545EA0020814224D1D97A187B01EB87
:102BD00000200E49086008460068FEF7D7FD597BC3
:102BE000987B01EB0021D87B01EB0041187C01EBC5
:102BF0000060074908600FE000640040D0990008B9
:102C00007700002074000020760000207000002073
:102C100064000020002030BD0120FCE7014609B916
:102C20000020704748881A4A508008881080012088
:102C3000F7E7014609B900207047154840884880E9
:102C40001348008808800120F6E7014609B90020F2
:102C50007047104A08681060486850608868906043
:102C60000120F5E7014609B90020704709480068CE
:102C7000086008484068486006488068886001200D
:102C8000F3E7054908707047034800787047000073
:102C900078000020343900207C0000200CB5002092
:102CA000019000907248006840F4803070490860DC
:102CB00000BF6F48006800F4003000900198401C8D
:102CC0000190009818B90198B0F5A06FF1D168484B
:102CD000006800F4003010B10120009001E00020F5
:102CE00000900098012846D161484030006840F0CB
:102CF00080505F49403108605E48006840F4804081
:102D00005C4908605A480830006859490831086031
:102D10000846006840F4004008600846006840F437
:102D2000A05008605448091F0860081F006840F060
:102D30008070091F086000BF4D48006800F00070F7
:102D40000028F9D040F205604C4908604848083036
:102D5000006820F003004649083108600846006812
:102D600040F00200086000BF41480830006800F0F1
:102D70000C000828F8D10CBD10B53D48006840F0A3
:102D800001003B4908600020394908310860384893
:102D900000683B490840364908603A48091D086008
:102DA000081F006820F48020091F086000203049B7
:102DB0000C310860FFF772FF4FF000603249086085
:102DC00010BD70B500200022022300240221284DEE
:102DD00008352D6805F00C0020B1042806D008281D
:102DE00034D107E0294D2A4E356033E0294D284E75
:102DF00035602FE01E4D2D1D2D68C5F380541C4DF0
:102E00002D1D2D6805F03F0154B1224DB5FBF1F5A4
:102E1000174E361D3668C6F3881605FB06F209E024
:102E20001A4DB5FBF1F5124E361D3668C6F38816FD
:102E300005FB06F20E4D2D1D2D68C5F301456D1CD9
:102E40006B00B2FBF3F5124E356003E00F4D104EF0
:102E5000356000BF00BF064D08352D68C5F303156A
:102E60000D4E705D0A4D2D68C540094E356070BD30
:102E7000003802400070004008544007003C024007
:102E8000FFFFF6FE1030002408ED00E00024F400FF
:102E90008000002000127A0084000020094880474A
:102EA00009480047FEE7FEE7FEE7FEE7FEE7FEE72C
:102EB000FEE7FEE7FEE7FEE704480549054A064B44
:102EC00070470000792D000889010008285700206C
:102ED000285D0020285900202859002059488021C9
:102EE00002E0491E002204C00029FAD1564A574B7D
:102EF0001A601A46126822F007021A600022544B28
:102F00001A807047704710B50446204603F0C5FD8F
:102F100010BD10B50446204603F0C0FD10BD10B52D
:102F200003F0BDFD10BD10B503F0BBFD10BD70B5C5
:102F3000044610464FF080750560051F28462C603A
:102F4000444E051F28462E604FF01236051F2846B6
:102F50002E604FF00336051F28462E604FF00236D4
:102F6000051F28462E607610051F28462E60051F77
:102F7000284629604FF01136051F28462E604FF075
:102F80001036051F28462E604FF00936051F2846CB
:102F90002E604FF00836051F28462E604FF007368A
:102FA000051F28462E604FF00636051F28462E6066
:102FB0004FF00536051F28462E604FF00436051FDA
:102FC00028462E6070BD10B503F06CFD10BD10B525
:102FD0000446204603F067FD10BD10B503F064FD04
:102FE0001B480088401C1A490880084600880A28A7
:102FF00003D30020088003F06BFC10BD10B500F077
:1030000031F8044614480078401C134908702046E3
:1030100000F02CF800F009FE1048006802F0D1FB27
:1030200000F009FD10BD411E4FF0E0225161FF226A
:103030000B49CA7200214FF0E02291610721116112
:103040007047000040390020403B002094000020E1
:1030500098000020CB610008B50000201800002077
:1030600018ED00E0EFF3108072B6704780F310881F
:1030700070471F484FF0FF010170002080F309885E
:103080001C48012101701C484FF08051016062B65C
:10309000FEE719484FF080510160704716484FF025
:1030A00080510160704772B6EFF3098028B1203873
:1030B00080E8F00F11490968086000B510488047A2
:1030C0005DF804EB0F4810490A7802700B480F496D
:1030D0000A680260106890E8F00F203080F30988D9
:1030E0004EF0040E62B6704772B6704762B6704713
:1030F00022ED00E0C200002004ED00E0C800002046
:10310000C72F0008B7000020B8000020D000002022
:103110001D481E481E481F481F4820482048214877
:103120002148224822482348234824482448254847
:103130002548264826482748274828482848294817
:1031400029482A482A482B482B482C482C482D48E7
:103150002D482E482E482F482F48304830483148B7
:103160003148324832483348334834483448354887
:103170003548364836483748374838483848394857
:10318000394800BF70470000009A0008049A000800
:103190000A9A00080C9A0008089A00080E9A00087B
:1031A000109A0008129A0008149A0008169A00084B
:1031B000189A00081A9A00081C9A00081E9A00081B
:1031C000209A0008229A0008249A0008269A0008EB
:1031D000289A00082A9A00082C9A00082E9A0008BB
:1031E000309A0008329A0008349A0008369A00088B
:1031F000389A00083A9A00083C9A00083E9A00085B
:10320000409A0008429A0008449A0008469A00082A
:10321000489A00084A9A00084C9A00084E9A0008FA
:10322000509A0008529A0008569A0008589A0008C6
:103230005A9A00085C9A000808520020885600201C
:10324000609A0008629A0008649A0008669A00086A
:10325000689A00086A9A00086C9A00086E9A00083A
:10326000709A00085E9A0008729A000801460020D1
:1032700002E0491C421CD0B20A78002AF9D17047FA
:103280002DE9F04105460E461446002725B90420D5
:1032900020700020BDE8F0811EB90C2020700020B5
:1032A000F8E7F748007818B1112020700020F1E706
:1032B0002878012808D0022807D0032802D0042843
:1032C00004D100E000BF00BF00BF03E00120207078
:1032D0000020DFE700BFFFF7C5FE074668693060E2
:1032E0003068FFF7C3FF80463846FFF7BFFE002077
:1032F00020704046CEE72DE9F04105460E461446C3
:1033000000271DB904202070BDE8F08116B90C20FB
:103310002070F9E7DA48007810B112202070F3E746
:103320002878012808D0022807D0032802D00428D2
:1033300004D100E000BF00BF00BF02E00120207008
:10334000E2E700BFFFF78EFE07466E613846FFF7E3
:103350008DFE0020207000BFD6E7F0B5024612F8BF
:10336000384F95785678383A0B4618680FE000F1D8
:103370000B073F5DB74300F10B0C0CF80470674678
:103380003F5D17B9877AAF4387721B1D1868002805
:10339000EDD1F0BDBB49BC4A1278885CBB49095CE1
:1033A000B84A515C01EBC001B94A1170704710B5C1
:1033B0000024FFF757FE0446B1480078F8B9B54835
:1033C0000078E0B9FFF7E6FFB348B149097850F853
:1033D0002100B2490860AE480078B14909788842B6
:1033E0000DD0AE480068C06B401CAC490968C8638A
:1033F000AC480068401CAB490860FFF74AFE204615
:10340000FFF734FE10BD70B501460024A64D2D68AF
:10341000EC61A54C246821620B4618681BE0A24CA5
:10342000246894F8385000F10B04645D9E4D2D68BB
:1034300095F839502C439C4D2D6895F8386000F173
:103440000B05AC55847A984D2D6895F83A502C436D
:1034500084721B1D18680028E1D1934C246894F8ED
:1034600038208A4CA45C904D2D6895F83950AC43B7
:10347000864DAC542C46A45C44B98B4C246894F81B
:103480003A50814C2478AC437F4D2C7070BD2DE9AF
:10349000FF4F83B081460E461546109F00200090D6
:1034A000B9F1000F05D104203870002007B0BDE845
:1034B000F08FD9F8000018B9042038700020F5E723
:1034C0001EB9042038700020F0E71DB904203870C0
:1034D0000020EBE700203060CA46DAF8004015E033
:1034E0002078062807D2DFE800F006040503070865
:1034F00007E006E005E000BF00BF012038700020B3
:10350000D4E700BF0AF1040ADAF80040002CE7D142
:103510005B48007818B1022038700020C6E75D488B
:10352000007818B10D2038700020BFE7FFF79AFD32
:1035300000900020029083460190CA46DAF80040CD
:1035400066E02078062853D2DFE800F052172A03FD
:103550005354208960B12089401E208110C601206B
:103560000290002001C50BF101001FFA80FB03E06F
:10357000019840F00100019045E0606858B1606832
:1035800001C50020606010C6012002900BF101000F
:103590001FFA80FB03E0019840F00200019032E046
:1035A000D4F80480B8F81600E8B1D8F81010081D57
:1035B000C8F81000086801C5D8F80810D8F810003D
:1035C000884203D1D8F80400C8F81000B8F81600F3
:1035D000401EA8F8160010C6012002900BF1010051
:1035E0001FFA80FB03E0019840F0040001900AE01C
:1035F00000BF00BF0098FFF739FD002030600120B8
:103600003870584652E700BF0AF1040ADAF8004061
:10361000002C96D10298012808D100203060009833
:10362000FFF724FD0020387058463FE71E48006829
:1036300090F83400019941F0800108431A49096863
:1036400081F8340000201849096881F835001649CE
:103650000698096808634846FFF7D5FE0098FFF70B
:1036600005FDFFF7A4FEFFF7FDFC00900E48006883
:1036700090F83500D0B1012831D002282ED116E0C3
:10368000B5000020749A0008B9000020BA0000209C
:10369000B8000020B600002030450020D0000020F7
:1036A000B70000209C000020C800002000BFFE489A
:1036B0000068C4693CB110C6002030600BF1010005
:1036C0001FFA80FB09E00120F749096881F83500FD
:1036D0004946F5480068FFF740FE06E000BF49464E
:1036E000F1480068FFF739FE00BF00BFEE480068F0
:1036F00090F8350020B1012828D0022825D11FE0FC
:10370000207806280DD2DFE800F00C0607030D0E26
:10371000002001C510E000BFE3480068406A01C511
:103720000AE000BF00BF0098FFF7A0FC0020306057
:10373000012038705846B9E600BF002038700AE012
:10374000002001C50E20387005E000BF002001C533
:103750000A20387000BF00BF0020D349096881F8F3
:103760003400D149096881F83500CF490968C8613A
:10377000CD4909680862CC49096848620098FFF79A
:1037800075FC584692E67CB5002514E0694628464B
:1037900002F0E3FB064666B9C44850F8254044B140
:1037A000012C06D0D4E9020100EB8100A06401984D
:1037B000E064681CC5B23F2DE8D97CBD002400BF81
:1037C00002E0142002F00EFDB94800780028F8D07D
:1037D000B84800686421B0FBF1F0B64908600846BB
:1037E000006828B90020B4490870FF2002F000FCEE
:1037F00000BFFFF737FC0446B0480068B0490860D6
:103800000020AE4908602046FFF730FCAC48006855
:10381000A8490968B0FBF1F0C0F16400A64908703E
:10382000FFF781FBFFF7AFFF0A2002F0DBFCE0E7C8
:1038300000B587B0032000218022A24BCDE90132E0
:10384000CDE903104FF6FE703E239F4A0090AFF281
:10385000930002F06DF906AA9CA13E2002F0F0FA56
:1038600007B000BD002400BF00BFFFF7FBFB04460C
:1038700092480068401C914908602046FFF7F6FB1B
:10388000FFF74DFBF1E700B587B003200021802250
:10389000924BCDE90132CDE903104FF6FF703F2383
:1038A0008F4A0090AFF2430002F042F906AA8DA1C0
:1038B0003F2002F0C5FA07B000BD04E0002200F886
:1038C000012B4A1E91B20029F8D1704770B54FF410
:1038D000B4618848FFF7F1FF002411E0601C85B255
:1038E00004EB4400834901EBC00305EB450001EB09
:1038F000C006002018705E607FA05861601C84B212
:103900003B2CEBD304EB44007A4901EBC0030020CD
:103910001870586078A0586108467849086070BDF2
:1039200070B54FF430617648FFF7C7FF4FF48071F0
:103930005E48FFF7C2FF002413E0601CC5B204EB31
:10394000440000EBC4006E4901EBC00305EB4500E9
:1039500000EBC50001EBC0065E6167A01865601C46
:10396000C4B21F2CE9D304EB440000EBC40064494B
:1039700001EBC003002058615FA018650020614979
:1039800008605F486049086070BD00215F4A11709F
:10399000002004E000215E4A1154411CC8B20828EE
:1039A000F8D300215B4A11705B4A11705B4A1160C9
:1039B0003D4A116070470020594908605949087014
:1039C000594908705949087059490870594908609F
:1039D0003A4908603A490860364908603449087035
:1039E000704710B5FFF77AFAFFF7E5FFFFF7CDFF55
:1039F000FFF796FFFFF76AFF00F0E4FE01F025FAFB
:103A000001F051FDFFF73FFFFFF712FF02F0BAFF91
:103A1000FFF778FAFFF77CFB10BD454800780128D6
:103A200008D140480078FF2804D23E480078401C66
:103A30003C490870704710B500243D4800780128C3
:103A400030D1FFF70FFB04463648007820B13548E7
:103A50000078401E3349087032480078F8B932487F
:103A60000078E0B9FFF796FC10482B49097850F828
:103A700021002A49086028480078264909788842A8
:103A80000DD026480068C06B401C24490968C863F3
:103A900028480068401C27490860FFF7FFFA2046C5
:103AA000FFF7E4FA10BD0000C800002030450020F8
:103AB000B4000020AC000020A8000020C4000020BA
:103AC000B0000020304100202C43002075432F4FD0
:103AD000532D494920537461740000003043002085
:103AE0002C45002075432F4F532D49492049646CC4
:103AF00065000000403B00203F000000A0000020C7
:103B000030460020D4000020CC000020B900002066
:103B1000BA000020B7000020B8000020D00000202C
:103B2000E4000020B5000020B6000020C300002003
:103B3000C20000209C00002010B50024FE48007840
:103B4000012811D1FFF78EFA0446FC48007840B9ED
:103B5000FB480078FF2804D2F9480078401CF84957
:103B600008702046FFF782FA10BD10B50024F24815
:103B70000078012821D1FFF775FA0446F048007853
:103B8000C0B1EF480078401EED4908700846007843
:103B900060B9EA48007828B92046FFF767FAFFF7CE
:103BA00006FC0AE02046FFF761FA06E02046FFF730
:103BB0005DFA02E02046FFF759FA10BD10B5DE4865
:103BC000007890B9FFF7E6FBDE480078DE49087020
:103BD000DE48DC49097850F82100DD4908600846D4
:103BE0000068DC490860FFF744FA10BD10B50024F6
:103BF000022002F0F7FAFFF735FA04460020D64912
:103C000008602046FFF732FA0A2002F0EBFAFFF7CD
:103C100029FA0446D0480068D04908600120D049FC
:103C200008702046FFF722FA10BD70B50026FFF796
:103C3000D4F9FFF717FA0646CA480068401CC9497C
:103C400008603046FFF712FABB480078012853D1CC
:103C5000C548007820B1012804D0022809D103E02A
:103C600001250BE0002509E001250120BE4908706F
:103C700004E001250020BC49087000BF00BF05B961
:103C800070BDBA48046833E0FFF7ECF90646206BD4
:103C900050B3206B401E2063206B28BB94F8340087
:103CA00000F0370040B114F8340F00F0C800207065
:103CB00001206070343C02E0002084F8350094F864
:103CC000340000F0080078B93834A078A8490978A1
:103CD0000843A74908702078A649085C6178084322
:103CE00014F83819A34A505464693046FFF7BEF9F6
:103CF00094F836003F28C7D100BFC1E740F2231037
:103D00007047704710B590F8382001F10B039B5CA9
:103D100090F83940A34301F10B04A35423469B5C64
:103D200023B98B7A90F83A40A3438B7210BD2DE9EA
:103D3000F04F05460F4690469946A87A8E490E5C8C
:103D400005F10B00805D11F800B00BEBC60000F030
:103D5000FF0A7E4850F82A4000202434E0602760A3
:103D6000207C20EA0800207484F81190207C243CF8
:103D700000F0080068B994F83A007D4909780843D2
:103D80007B4908707B48805D94F839100843794975
:103D9000885529462046FFF7B5FF206A20B1204606
:103DA000216AFFF7DAFAE5615046BDE8F08F10B5F9
:103DB000684A1268D061674A126892F8383000F198
:103DC0000B02D25C634B1B6893F839301A43614B8A
:103DD0001B6893F8384000F10B031A55827A5D4B4B
:103DE0001B6893F83A301A4382725A4A126892F862
:103DF0003810604A525C574B1B6893F839309A432D
:103E00005C4B5A541A46525C42B9524A126892F8B4
:103E10003A30574A12789A43554B1A7010BD0146F2
:103E200000228A72002005E0002301F10B021354E6
:103E3000421CD0B20828F7D3704705E011F8013BC7
:103E400000F8013B531E9AB2002AF7D170472DE9C2
:103E5000F84F05460F4690469946DDE90AAB00202B
:103E60000090FFF7FFF8009044480468002C61D0F0
:103E70001C3454F8080C414908600098FFF7F6F824
:103E800044F81C7CA576002020766076606144F8BA
:103E900018BC44F810AC44F8148C0C9824F80C0CA2
:103EA00024F80A9C0020E077E810207705F007004E
:103EB000E076217F01208840A077E17E01208840C4
:103EC0006077002020606060E060A0602062A062F7
:103ED0006062E0622063AFF2E03060631C3C002669
:103EE00006E0002104F1540040F82610701CC6B210
:103EF000002EF6D02046FFF76AF82046FFF703F8B9
:103F0000FFF7B0F80090114840F8254017480068C6
:103F100060610020A0611548006810B11348006876
:103F20008461124804603834A07811490978084344
:103F30000F4925E039E00000C2000020B500002054
:103F4000B6000020B8000020B70000203045002057
:103F5000D0000020C8000020C4000020AC000020D9
:103F6000B4000020E4000020D8000020D40000208D
:103F7000B9000020BA000020749A0008CC0000208C
:103F8000087020780B49085C6178084314F83819E8
:103F9000084A505408480078401C074908700098A7
:103FA000FFF764F80020BDE8F88F0098FFF75EF88F
:103FB0004220F8E7BA000020C30000202DE9F05F9E
:103FC00004460F4691461E464FF0000B24B96E2062
:103FD00030700020BDE8F09F2078052803D0012034
:103FE00030700020F6E709F0800ABAF1000F04D023
:103FF00029F080094FF0010801E04FF0000800208F
:104000003070FFF72FF88346B9F1000F2CD0B9F1CB
:10401000010F3BD0B9F1020F03D0B9F1030F46D124
:1040200011E0208900EA0705BD4206D1B8F1010F71
:1040300005D12089A843208101E0702030705846C6
:10404000FFF714F83AE0208900EA070535B1B8F126
:10405000010F05D12089A843208101E07020307034
:104060005846FFF703F829E0208927EA0005BD42FA
:1040700006D1B8F1010F05D120892843208101E044
:10408000702030705846FEF7F1FF17E0208927EACC
:10409000000535B1B8F1010F05D1208928432081F1
:1040A00001E0702030705846FEF7E0FF06E0584609
:1040B000FEF7DCFF00256F20307000BF00BF2846F0
:1040C00088E72DE9F04106460D460027F7480078BD
:1040D00020B1102028700020BDE8F081FEF7C2FF5B
:1040E0000746F348046884B100684068F0490860F6
:1040F00005202070268100206060EEA0E060384638
:10410000FEF7B4FF0020287004E03846FEF7AEFF4B
:10411000722028702046DFE730B501464A680868FB
:104120002AB9CC68606028B10025456002E01060C3
:1041300000B142608B6800259D6230BDF0B5064637
:104140000F46B46800202C3460602780207A00F08D
:10415000DF00207200206072207A2C3C88B938344D
:10416000A078D54909780843D34908702078D34905
:10417000085C6178084314F83819D04A5054012576
:1041800000E000253046FFF7C7FF2846F0BD2DE9C7
:10419000F0470446894615464FF0000A24B96E20C0
:1041A00028702046BDE8F087C048007818B10F207D
:1041B00028702046F6E72078052803D001202870D3
:1041C0002046EFE7FEF74EFF8246606808B1012700
:1041D00000E00027B9F1000F03D0B9F1010F3CD185
:1041E00019E08FB9B3A0E06000202070B0480068EB
:1041F000606000202081AE4804605046FEF736FF24
:1042000000202870002605E05046FEF72FFF4920C9
:104210002870264628E0D4F8048005E000214046B6
:10422000FFF78CFFD8F80080B8F1000FF6D1A1A0FD
:10423000E060002020709E480068606000202081BF
:104240009B4804605046FEF711FF012F01D1FFF794
:10425000AEF800202870002606E05046FEF706FF64
:1042600007202870264600BF00BF30469AE72DE998
:10427000F04105460E461446002725B96E202070F1
:104280000020BDE8F0811EB90C2020700020F8E766
:104290008648007818B1112020700020F1E7FEF761
:1042A000E1FE07462878052806D03846FEF7DEFEF0
:1042B000012020700020E4E7E86830603068FEF7F5
:1042C000D5FF80463846FEF7D1FE002020704046DC
:1042D000D7E72DE9F04105460E46144600271DB9E3
:1042E0006E202070BDE8F08116B90C202070F9E72F
:1042F0006E48007810B112202070F3E7FEF7B2FE8E
:1043000007462878052805D03846FEF7AFFE01207D
:104310002070E7E7EE603846FEF7A8FE0020207028
:1043200000BFDFE7F0B51446059E654F3F6897F87C
:10433000347047F02007DFF888C1DCF800C08CF843
:1043400034700027DFF878C1DCF800C08CF83570D5
:104350005B4F3F683E635A4F3F68B9620C828B7473
:10436000574F3F688F6047680F6000274F60C860F5
:10437000456805B169604160514F3F6897F8382042
:104380004E4FBF5CDFF838C1DCF800C09CF839C084
:1043900027EA0C07DFF824C10CF802706746BF5CFF
:1043A0005FB9474F3F6897F83AC0434F3F7827EAD5
:1043B0000C07DFF804C18CF80070F0BD2DE9F04F58
:1043C00089B005460F4691469A46129E00200290FB
:1043D0002DB96E203070002009B0BDE8F08F334851
:1043E000007818B1022030700020F5E735480078D9
:1043F00018B10D2030700020EEE72878052803D092
:10440000012030700020E7E709F0800BBBF1000FBE
:1044100004D009F07F094FF0010801E04FF00008D7
:10442000FEF720FE0290B9F1000F59D0B9F1010F4B
:1044300079D0B9F1020F03D0B9F1030F72D120E0A6
:10444000288900EA0704BC420FD1B8F1010F02D15C
:104450002889A04328811A48006884850298FEF7BD
:1044600005FE002030702046B6E74B463A4604A9C8
:104470002846CDF800A0FFF755FF0298FEF7F6FD9D
:1044800079E0288900EA0704F4B1B8F1010F02D1FC
:104490002889A04328810A48006884850298FEF78D
:1044A000E5FD00203070204696E70000B5000020B2
:1044B000A40000203F000000B9000020BA00002046
:1044C000C8000020B60000204B463A4604A9284602
:1044D000CDF800A0FFF726FF0298FEF7C7FD4AE0DF
:1044E000288927EA0004BC420FD1B8F1010F02D19C
:1044F000288920432881C748006884850298FEF7F0
:10450000B5FD00203070204666E74B463A4604A9C8
:104510002846CDF800A0FFF705FF0298FEF7A6FD9C
:1045200029E000E01FE0288927EA00047CB1B8F107
:10453000010F02D1288920432881B648006884856C
:104540000298FEF793FD00203070204644E74B466A
:104550003A4604A92846CDF800A0FFF7E3FE0298EA
:10456000FEF784FD07E00298FEF780FD00246F202F
:104570003070204630E700BFFEF719FFFEF772FDEE
:104580000290A448006890F8350020B3A148006864
:1045900090F83500039000209E49096881F83500A5
:1045A00004A8FFF7B9FD00209A49096881F8340092
:1045B0000298FEF75BFD00240398012805D002282D
:1045C00002D10E20307003E000BF0A20307000BF1F
:1045D00000BF204600E78F480068848DB8F1010FC6
:1045E0001ED1B9F1000F0ED0B9F1010F0CD0B9F105
:1045F000020F03D0B9F1030F0AD100E000BF2889F0
:10460000A04328810BE000BF28892043288106E0D1
:104610000298FEF72BFD6F2030700020DCE600BF13
:104620000298FEF723FD002030702046D4E670B5D6
:104630000025FEF717FD054676480068848D28465C
:10464000FEF714FD204670BD2DE9FC5F0446894647
:1046500092461E460020009024B96E203070002043
:10466000BDE8FC9F2078052803D001203070002091
:10467000F6E7FEF7F7FC0090BAF1000F03D0BAF1AD
:10468000010F0AD104E0208920EA090020810BE013
:10469000208940EA0900208106E00098FEF7E6FC48
:1046A000712030700020DBE700BF4FF0000B656821
:1046B00055E0A87C40B3012838D0022802D0032856
:1046C00044D111E02089298A00EA0107288AB842EA
:1046D00009D139462846FFF731FD8046B8F1010F70
:1046E00001D14FF0010B38E02089298A00EA010747
:1046F0004FB139462846FFF721FD8046B8F1010F3A
:1047000001D14FF0010B28E0288A218920EA010716
:10471000288AB84209D139462846FFF70FFD80465E
:10472000B8F1010F01D14FF0010B16E0288A218961
:1047300020EA01074FB139462846FFF7FFFC8046C3
:10474000B8F1010F01D14FF0010B06E00098FEF720
:104750008DFC6F203070002082E700BF2D68002D97
:10476000A7D10098FEF782FCBBF1010F01D1FEF743
:104770001EFEFEF777FC0090208901900098FEF75E
:1047800075FC0020307001986AE72DE9F04104467D
:104790000D46002724B96E2028700020BDE8F08166
:1047A0002078052803D0012028700020F6E7FEF7C6
:1047B00059FC074626893846FEF758FC0020287029
:1047C0003046EBE72DE9F04150211348FFF775F82B
:1047D00000250EE0681C86B20F4800EB051400EBC4
:1047E0000617002020706760AFF23830E060681C68
:1047F00085B2042DEED3084800EB0514002020708C
:104800006060AFF25030E060034804490860BDE8E2
:10481000F0810000C8000020E0400020A40000203B
:1048200070B5044600260CB9002070BD2078012820
:1048300001D00020F9E7FEF715FC06466568002068
:1048400060603046FEF712FC2846EEE770B505467C
:104850000026F948007808B1002070BDFEF702FC80
:104860000646F6480468006820B1F44800684068CD
:10487000F24908603046FEF7F9FB4CB10120207088
:10488000002020816560EEA060612046FFF7C7FA36
:104890002046E2E72DE9F0470446884615464FF0EA
:1048A000000924B9042028702046BDE8F08720784C
:1048B000012803D0012028702046F6E7DE48007862
:1048C00018B10F2028702046EFE7FEF7CBFB81469A
:1048D000A07A08B1012700E00027B8F1000F03D04B
:1048E000B8F1010F3AD119E08FB9D5A0606100206D
:1048F0002070D2480068606000202081CF480460AA
:104900004846FEF7B3FB00202870002605E0484625
:10491000FEF7ACFB49202870264626E005E0002380
:10492000022219462046FFF702FAA07A0028F6D1A3
:10493000C3A0606100202070C04800686060002053
:104940002081BE4804604846FEF790FB012F01D14C
:10495000FEF72DFD00202870002606E04846FEF7F1
:1049600085FB07202870264600BF00BF30469CE725
:104970002DE9F04105460F4614464FF0000825B9D1
:10498000042020700020BDE8F0812878012803D0A1
:10499000012020700020F6E7A748007818B1022017
:1049A00020700020EFE7A748007818B10D20207094
:1049B0000020E8E7FEF756FB80466E6846B100200F
:1049C00068604046FEF752FB002020703046DAE770
:1049D0009D48006890F8340040F002009A49096848
:1049E00081F8340000209849096881F8350096481C
:1049F000006807632846FFF7DAF94046FEF736FB02
:104A0000FEF7D5FCFEF72EFB80468F48006890F835
:104A1000350020B101280DD002280AD105E08A48CE
:104A20000068466A002020700DE000260E202070ED
:104A300009E000BF294684480068FFF763F90026B3
:104A40000A20207000BF00BF00207F49096881F85C
:104A500034007D49096881F835007B490968C861DF
:104A60007949096808627849096848624046FEF752
:104A7000FDFA304687E72DE9F04104460F4615461A
:104A80004FF0000824B9042028700020BDE8F08110
:104A90002078012803D0012028700020F6E7FEF7D7
:104AA000E1FA8046A07A20B300267FB1012F0CD115
:104AB00007E002231A4600212046FFF738F9701C50
:104AC000C6B2A07A0028F4D109E000BF02231A463A
:104AD00000212046FFF72BF9701CC6B200BF00BFB3
:104AE0004046FEF7C3FAFEF762FC0E2028703046FF
:104AF000CCE74046FEF7BAFA0020287000BFC5E7B1
:104B000070B504460D4600260CB9042070BD0DB9E1
:104B10000320FBE72078012801D00120F6E7FEF70B
:104B2000A1FA0646A07A60B1002302222946204657
:104B3000FFF7FDF83046FEF799FAFEF738FC002043
:104B4000E4E7606820B13046FEF790FA1420DDE714
:104B500065603046FEF78AFA0020D7E72DE9F0417C
:104B600004460D461646002714B90420BDE8F0811E
:104B70000DB90320FAE72078012801D00120F5E7DC
:104B8000FEF770FA0746A07AE8B106F0010050B1CE
:104B900005E00023022229462046FFF7C8F8A07A44
:104BA0000028F6D105E00023022229462046FFF71F
:104BB000BEF83846FEF75AFA06F0040008B9FEF7C8
:104BC000F6FB0020D2E7606820B13846FEF74EFAC7
:104BD0001420CBE765603846FEF748FA0020C5E7A9
:104BE0002DE9F04704460D464FF0000914B90420A2
:104BF000BDE8F0870DB90920FAE72078012801D037
:104C00000120F5E7FEF72EFA8146A07A287304F119
:104C10000B0705F10408002605E017F8010B08F85A
:104C2000010B701CC6B2082EF7D360682860484696
:104C3000FEF71CFA0020DBE7B5000020A0000020F2
:104C40003F000000B6000020C80000202DE9FC5FF6
:104C500005460F4691461E460020009025B9622069
:104C600030700020BDE8FC9F05F0030018B1622001
:104C700030700020F6E7022F03D25B203070002056
:104C8000F0E7B9F1040F03D25C2030700020E9E7AF
:104C9000FEF7E8F900907F480468006820B17D487D
:104CA000006840687B4908600098FEF7DFF91CB98E
:104CB0005A2030700020D5E7AA46A846781E0190F9
:104CC0004FF0000B05E0C844CAF80080C2460BF163
:104CD000010B01988345F6D30020CAF80000256037
:104CE00065602761E760C4F8089030702046B9E736
:104CF0002DE9F04104460D46002724B960202870B4
:104D00000020BDE8F081FEF7ADF90746206960B1EB
:104D10006668306860602069401E20613846FEF792
:104D2000A5F9002028703046EBE73846FEF79EF9DB
:104D30005D2028700020E4E72DE9F04106460D468D
:104D40001446002726B9602020700020BDE8F081BD
:104D50001DB90C2020700020F8E74F48007818B1EA
:104D6000112020700020F1E7FEF77CF907467069FA
:104D700028602868FEF77AFA80463846FEF776F90A
:104D8000002020704046E1E72DE9F04105460E463F
:104D9000144600271DB960202070BDE8F08116B9C7
:104DA0000C202070F9E73C48007810B112202070E8
:104DB000F3E7FEF757F907466E613846FEF756F9F6
:104DC0000020207000BFE8E770B504460D460026BD
:104DD0000CB9602070BD0DB95F20FBE7FEF742F90A
:104DE0000646D4E90310884204D33046FEF73EF964
:104DF0005E20EFE76068286065602069401C2061E4
:104E00003046FEF733F90020E4E770B505460C465E
:104E100000260DB9602070BD0CB96120FBE7FEF7DC
:104E200021F906462868206068686060A868A0606C
:104E3000E868E060286920613046FEF717F9D4E998
:104E40000301401A60610020E5E770B5782113483E
:104E5000FEF733FD00240EE004EB44000F4901EBA4
:104E6000C005601C00EB400001EBC00068600CA0B6
:104E70006861601C84B2042CEED304EB4400074943
:104E800001EBC0050020686005A068610846014983
:104E9000086070BDDC000020B5000020305100200B
:104EA0003F0000002DE9F04106460D464FF0000896
:104EB00026B9042028700020BDE8F081307802284F
:104EC00003D0012028700020F6E7FEF7CBF88046DB
:104ED0007468E08A78B12169081D20610F68E08A52
:104EE000401EE082A1682069884201D1606820618B
:104EF0000020287002E01F20287000274046FEF79F
:104F0000B5F83846D8E72DE9F04106460F464FF090
:104F10000008FA48007810B10020BDE8F081FEF7E3
:104F2000A1F88046F6480468006820B1F44800689B
:104F30004068F34908604046FEF798F8FCB1FEF778
:104F400091F88046EF480568D5B100680068ED49E2
:104F500008604046FEF78AF86E6006EB8700A8609E
:104F6000EE602E61AF820020E882022020700020D7
:104F700020816560E4A060612046FEF750FF08E0F4
:104F8000DF4800686060DE4804604046FEF76EF867
:104F900000242046C1E72DE9F0470446894615461E
:104FA0004FF0000A24B9042028702046BDE8F0879D
:104FB0002078022803D0012028702046F6E7CF4849
:104FC000007818B10F2028702046EFE7FEF74AF866
:104FD0008246A07A10B14FF0010801E04FF00008BE
:104FE000B9F1000F03D0B9F1010F49D121E0B8F1B7
:104FF000000F17D1C4A060616668C24800683060C5
:10500000C048066000202070BD4800686060002035
:105010002081BB4804605046FEF728F80020287025
:10502000002705E05046FEF721F849202870274662
:105030002DE005E00023042219462046FEF777FE06
:10504000A07A0028F6D1B0A060616668AD4800681B
:105050003060AC48066000202070A948006860609D
:1050600000202081A64804605046FDF7FFFFB8F1FC
:10507000010F01D1FEF79BF900202870002706E000
:105080005046FDF7F3FF07202870274600BF00BFFA
:1050900038468BE770B5054600260DB9042070BD73
:1050A0002878022801D00120F9E7FDF7DBFF06464A
:1050B0006C686068E060606820610020E0823046D3
:1050C000FDF7D4FF0020EAE72DE9F04706468846C1
:1050D00015464FF0000926B9042028700020BDE8CD
:1050E000F0873078022803D0012028700020F6E7EE
:1050F0008248007818B1022028700020EFE783482A
:10510000007818B10D2028700020E8E7FDF7AAFF0D
:1051100081467468E08A98B12169081D20610F6892
:10512000E08A401EE082A1682069884201D160685F
:1051300020614846FDF79AFF002028703846CEE7E8
:105140007348006890F8340040F004007049096822
:1051500081F8340000206E49096881F835006C48F8
:105160000068C0F830803046FEF721FE4846FDF763
:105170007DFFFEF71CF9FDF775FF81466448006866
:1051800090F8350020B101280DD002280AD105E0A1
:105190005F480068476A002028700DE000270E2055
:1051A000287009E000BF314659480068FEF7AAFDA3
:1051B00000270A20287000BF00BF0020544909685A
:1051C00081F834005249096881F83500504909686E
:1051D000C8614F49096808624D49096848624846F4
:1051E000FDF744FF38467AE72DE9F04104460F46C3
:1051F00015464FF0000824B9042028700020BDE8AF
:10520000F0812078022803D0012028700020F6E7E2
:10521000FDF728FF8046A07A20B300267FB1012F3A
:105220000CD107E00223042200212046FEF77FFD77
:10523000701CC6B2A07A0028F4D109E000BF022396
:10524000042200212046FEF772FD701CC6B200BF8A
:1052500000BF4046FDF70AFFFEF7A9F80E202870B0
:105260003046CCE74046FDF701FF0020287000BF24
:10527000C5E72DE9F04105460E46002715B9042083
:10528000BDE8F0812878022801D00120F8E7FDF779
:10529000E9FE0746A87A60B1002304223146284679
:1052A000FEF745FD3846FDF7E1FEFEF780F80020E9
:1052B000E6E76C68E08AA18A884204DB3846FDF79D
:1052C000D5FE1E20DCE7E168081DE0600E60E08A84
:1052D000401CE082D4E90210884201D16068E0609D
:1052E0003846FDF7C3FE0020CAE72DE9F041054628
:1052F0000E46002775B90420BDE8F081B5000020F6
:10530000A0000020E00000203F000000B6000020C8
:10531000C80000202878022801D00120ECE7FDF722
:10532000A1FE0746A87A60B1002304223146284630
:10533000FEF7FDFC3846FDF799FEFEF738F8002031
:10534000DAE76C68E08AA18A884204DB3846FDF718
:105350008DFE1E20D0E761682069884201D1A068D7
:1053600020612069001F206120690660E08A401CDE
:10537000E0823846FDF77AFE0020BDE72DE9F041D6
:1053800005460F4616464FF0000815B90420BDE843
:10539000F0812878022801D00120F8E7FDF762FEAD
:1053A0008046A87AE8B106F0010050B105E000237C
:1053B000042239462846FEF7BAFCA87A0028F6D11E
:1053C00005E00023042239462846FEF7B0FC40469B
:1053D000FDF74CFE06F0040008B9FDF7E8FF0020D9
:1053E000D5E76C68E08AA18A884204DB4046FDF775
:1053F0003DFE1E20CBE706F0020058B1616820692F
:10540000884201D1A06820612069001F20612069C5
:10541000076009E0E168081DE0600F60D4E9021050
:10542000884201D16068E060E08A401CE08240462A
:10543000FDF71CFE0020AAE72DE9F04705460C46C3
:105440004FF0000A15B90420BDE8F0870CB9092017
:10545000FAE72878022801D00120F5E7FDF702FEDF
:105460008246A87A207405F10B0804F10809002788
:1054700005E018F8010B09F8010B781CC7B2082FDA
:10548000F7D36E68F08A18B130690068206001E0D7
:1054900000202060F08AA080B08AE0805046FDF7AE
:1054A000E5FD0020D0E72DE9F04160211048FEF72E
:1054B00004FA00240DE0601C86B204EB44000C49A1
:1054C00001EBC00506EB460001EBC0072F60601C36
:1054D00084B2032CEFD304EB4400054901EBC00573
:1054E00000202860084603490860BDE8F0810000FC
:1054F000A8510020E000002070B5044600260CB939
:10550000002070BD2078032801D00020F9E7FDF7C6
:10551000A9FD0646258915B12089401E2081304607
:10552000FDF7A4FD2846ECE770B505460026E548E2
:10553000007808B1002070BDFDF794FD0646E248F2
:105540000468006820B1E04800684068DE490860EF
:105550003046FDF78BFD4CB10320207025810020E3
:105560006060DAA060612046FEF759FC2046E2E761
:105570002DE9F0470446884615464FF0000924B946
:10558000042028702046BDE8F0872078032803D047
:10559000012028702046F6E7CA48007818B10F208D
:1055A00028702046EFE7FDF75DFD8146A07A08B13F
:1055B000012700E00027B8F1000F03D0B8F1010F78
:1055C0003AD119E08FB9C1A0606100202070BE48B7
:1055D0000068606000202081BB4804604846FDF7F9
:1055E00045FD00202870002605E04846FDF73EFDF9
:1055F00049202870264626E005E0002301221946AE
:105600002046FEF794FBA07A0028F6D1AFA0606197
:1056100000202070AC480068606000202081AA480B
:1056200004604846FDF722FD012F01D1FDF7BFFEC2
:1056300000202870002606E04846FDF717FD0720E9
:105640002870264600BF00BF30469CE72DE9F04198
:1056500005460E46144600271DB904202070BDE8FB
:10566000F0812878032802D001202070F7E79548C0
:10567000007810B102202070F1E79548007810B151
:105680000D202070EBE7FDF7EDFC0746288940B1BF
:105690002889401E28813846FDF7E8FC002020704C
:1056A000DDE78C48006890F8340040F0010089493B
:1056B000096881F8340000208649096881F83500BE
:1056C0008448006806632846FEF771FB3846FDF7FC
:1056D000CDFCFDF76CFEFDF7C5FC07467D48006874
:1056E00090F8350020B1012809D0022806D102E047
:1056F000002020700BE00E20207008E000BF29463B
:1057000074480068FEF7FEFA0A20207000BF00BF50
:1057100000207049096881F834006E49096881F8F1
:1057200035006C490968C8616A49096808623846E9
:10573000FDF79CFC00BF92E72DE9F04104460F46BF
:1057400015464FF0000824B9042028700020BDE859
:10575000F0812078032803D0012028700020F6E78C
:10576000FDF780FC8046A07A20B300267FB1012F90
:105770000CD107E00223012200212046FEF7D7FAD0
:10578000701CC6B2A07A0028F4D109E000BF022341
:10579000012200212046FEF7CAFA701CC6B200BFE3
:1057A00000BF4046FDF762FCFDF701FE0E202870A9
:1057B0003046CCE74046FDF759FC0020287000BF7A
:1057C000C5E770B5044600250CB9042070BD2078EB
:1057D000032801D00120F9E7FDF744FC0546A07A33
:1057E00060B10023012219462046FEF7A0FA2846A0
:1057F000FDF73CFCFDF7DBFD0020E7E720894FF6D5
:10580000FF71884207D22089401C20812846FDF77D
:105810002DFC0020DAE72846FDF728FC3320D5E7E9
:105820002DE9F04704460D464FF0000914B9042055
:10583000BDE8F0870DB90920FAE72078032801D0E8
:105840000120F5E7FDF70EFC8146A07AA87204F16D
:105850000B0705F10208002605E017F8010B08F810
:10586000010B701CC6B2082EF7D320892880484649
:10587000FDF7FCFB0020DBE72DE9F04104460E4676
:10588000154600271CB904202870BDE8F081207857
:10589000032802D001202870F7E7FDF7E3FB074655
:1058A00000202870208908B1268105E0A07A08B977
:1058B000268101E0492028703846FDF7D7FB00BF5C
:1058C000E3E70000B5000020A00000203F0000003A
:1058D000B6000020C80000202DE9F04F85B08146B9
:1058E000884600200090B9F13F0F06D3B9F1FF0FB1
:1058F00003D02A2005B0BDE8F08FB8F13F0F01D3E7
:105900002A20F7E7FDF7AEFB0090F94850F8280091
:1059100020B10098FDF7AAFB2820EBE7B9F1FF0FB3
:1059200003D1F448006890F83690F14850F82950B7
:1059300025B90098FDF79AFB2920DBE7012D04D15A
:105940000098FDF793FB4320D4E74FEAE80708F0FF
:10595000070003900120B84000F0FF0A01210398DE
:10596000814001F0FF0B0020E14941F82900084681
:1059700040F8285015F8386FA87802906878383DBC
:105980000190DD48815D01980140D1B1DA48805D28
:1059900001998843D84988550846805D28B9D74879
:1059A000007802998843D5490870D448007840EAC5
:1059B0000A00D2490870D048C05D40EA0B00CE49C9
:1059C000C855EC69D4B104F10B00805D019988439E
:1059D00004F10B0188550846805D18B9A07A029938
:1059E0008843A072A07A40EA0A00A07204F10B007A
:1059F000C05D40EA0B0004F10B01C855286A30B3C2
:105A0000286A0490049804681FE004F10B00805D8C
:105A10000199884304F10B0188550846805D18B947
:105A2000A07A02998843A072A07A40EA0A00A07284
:105A300004F10B00C05D40EA0B0004F10B01C855F6
:105A40000498001D049004980468002CDDD185F8AA
:105A5000368085F83870039885F8370085F83AA0C5
:105A600085F839B00098FDF701FBA54800780128BA
:105A700001D1FDF79CFC00203CE72DE9FE4F0646D6
:105A80000F4690461C464FF000093F2C02D92A20B1
:105A9000BDE8FE8FFDF7E6FA81469A48007820B10E
:105AA0004846FDF7E3FA3C20F2E7914850F824001D
:105AB00060BB01208E4941F824004846FDF7D6FA24
:105AC0000023424639463046FDF731FA824600202F
:105AD0000090019003460246514602902046FEF790
